{
  "contractName": "Rating",
  "abi": [
    {
      "inputs": [
        {
          "internalType": "bytes32[]",
          "name": "names",
          "type": "bytes32[]"
        }
      ],
      "stateMutability": "nonpayable",
      "type": "constructor"
    },
    {
      "anonymous": false,
      "inputs": [
        {
          "indexed": false,
          "internalType": "address",
          "name": "from",
          "type": "address"
        },
        {
          "indexed": false,
          "internalType": "bytes32",
          "name": "movieName",
          "type": "bytes32"
        },
        {
          "indexed": false,
          "internalType": "uint256",
          "name": "index",
          "type": "uint256"
        }
      ],
      "name": "AddMovie",
      "type": "event"
    },
    {
      "anonymous": false,
      "inputs": [
        {
          "indexed": false,
          "internalType": "address",
          "name": "from",
          "type": "address"
        },
        {
          "indexed": false,
          "internalType": "uint256",
          "name": "index",
          "type": "uint256"
        }
      ],
      "name": "AddVote",
      "type": "event"
    },
    {
      "inputs": [
        {
          "internalType": "uint256",
          "name": "",
          "type": "uint256"
        }
      ],
      "name": "movies",
      "outputs": [
        {
          "internalType": "bytes32",
          "name": "name",
          "type": "bytes32"
        },
        {
          "internalType": "uint256",
          "name": "votes",
          "type": "uint256"
        }
      ],
      "stateMutability": "view",
      "type": "function"
    },
    {
      "inputs": [],
      "name": "numMovies",
      "outputs": [
        {
          "internalType": "uint256",
          "name": "",
          "type": "uint256"
        }
      ],
      "stateMutability": "view",
      "type": "function"
    },
    {
      "inputs": [
        {
          "internalType": "uint256",
          "name": "index",
          "type": "uint256"
        }
      ],
      "name": "totalVotesFor",
      "outputs": [
        {
          "internalType": "uint256",
          "name": "",
          "type": "uint256"
        }
      ],
      "stateMutability": "view",
      "type": "function"
    },
    {
      "inputs": [
        {
          "internalType": "uint256",
          "name": "index",
          "type": "uint256"
        }
      ],
      "name": "voteForMovie",
      "outputs": [],
      "stateMutability": "nonpayable",
      "type": "function"
    },
    {
      "inputs": [
        {
          "internalType": "bytes32",
          "name": "movie",
          "type": "bytes32"
        }
      ],
      "name": "addMovie",
      "outputs": [],
      "stateMutability": "nonpayable",
      "type": "function"
    }
  ],
  "bytecode": "0x60806040523480156200001157600080fd5b5060405162000d7b38038062000d7b833981810160405281019062000037919062000217565b60005b8151811015620000ac576200009682828151811062000082577f4e487b7100000000000000000000000000000000000000000000000000000000600052603260045260246000fd5b6020026020010151620000b460201b60201c565b8080620000a390620003b2565b9150506200003a565b505062000478565b6000600180816001815401808255809150500390600052602060002090600302019050818160000181905550600160008084815260200190815260200160002060006101000a81548160ff0219169083151502179055507f4e7f1ce6361a60b37eb3e2455e45af0bc5611552abb9d35152d3822770d31d9d3383600180805490506200014191906200032f565b60405162000152939291906200028f565b60405180910390a15050565b6000620001756200016f8462000300565b620002cc565b905080838252602082019050828560208602820111156200019557600080fd5b60005b85811015620001c95781620001ae888262000200565b84526020840193506020830192505060018101905062000198565b5050509392505050565b600082601f830112620001e557600080fd5b8151620001f78482602086016200015e565b91505092915050565b60008151905062000211816200045e565b92915050565b6000602082840312156200022a57600080fd5b600082015167ffffffffffffffff8111156200024557600080fd5b6200025384828501620001d3565b91505092915050565b62000267816200036a565b82525050565b62000278816200037e565b82525050565b6200028981620003a8565b82525050565b6000606082019050620002a660008301866200025c565b620002b560208301856200026d565b620002c460408301846200027e565b949350505050565b6000604051905081810181811067ffffffffffffffff82111715620002f657620002f56200042f565b5b8060405250919050565b600067ffffffffffffffff8211156200031e576200031d6200042f565b5b602082029050602081019050919050565b60006200033c82620003a8565b91506200034983620003a8565b9250828210156200035f576200035e62000400565b5b828203905092915050565b6000620003778262000388565b9050919050565b6000819050919050565b600073ffffffffffffffffffffffffffffffffffffffff82169050919050565b6000819050919050565b6000620003bf82620003a8565b91507fffffffffffffffffffffffffffffffffffffffffffffffffffffffffffffffff821415620003f557620003f462000400565b5b600182019050919050565b7f4e487b7100000000000000000000000000000000000000000000000000000000600052601160045260246000fd5b7f4e487b7100000000000000000000000000000000000000000000000000000000600052604160045260246000fd5b62000469816200037e565b81146200047557600080fd5b50565b6108f380620004886000396000f3fe608060405234801561001057600080fd5b50600436106100575760003560e01c8063404ebf6c1461005c578063409fc9751461008d5780638db1883e146100ab578063a805f1ca146100c7578063a9200d5e146100f7575b600080fd5b6100766004803603810190610071919061054c565b610113565b6040516100849291906106e8565b60405180910390f35b610095610147565b6040516100a29190610771565b60405180910390f35b6100c560048036038101906100c09190610523565b610154565b005b6100e160048036038101906100dc919061054c565b6101c0565b6040516100ee9190610771565b60405180910390f35b610111600480360381019061010c919061054c565b610271565b005b6001818154811061012357600080fd5b90600052602060002090600302016000915090508060000154908060010154905082565b6000600180549050905090565b60008082815260200190815260200160002060009054906101000a900460ff16156101b4576040517f08c379a00000000000000000000000000000000000000000000000000000000081526004016101ab90610751565b60405180910390fd5b6101bd81610453565b50565b600081600081101580156101d8575060018054905081105b610217576040517f08c379a000000000000000000000000000000000000000000000000000000000815260040161020e90610711565b60405180910390fd5b600060018481548110610253577f4e487b7100000000000000000000000000000000000000000000000000000000600052603260045260246000fd5b90600052602060002090600302019050806001015492505050919050565b8060008110158015610287575060018054905081105b6102c6576040517f08c379a00000000000000000000000000000000000000000000000000000000081526004016102bd90610711565b60405180910390fd5b600060018381548110610302577f4e487b7100000000000000000000000000000000000000000000000000000000600052603260045260246000fd5b906000526020600020906003020190508060020160003373ffffffffffffffffffffffffffffffffffffffff1673ffffffffffffffffffffffffffffffffffffffff16815260200190815260200160002060009054906101000a900460ff16156103a1576040517f08c379a000000000000000000000000000000000000000000000000000000000815260040161039890610731565b60405180910390fd5b60018160020160003373ffffffffffffffffffffffffffffffffffffffff1673ffffffffffffffffffffffffffffffffffffffff16815260200190815260200160002060006101000a81548160ff02191690831515021790555080600101600081548092919061041090610817565b91905055507f499390774120763b71dfe4188dd96eb13afb0237a4e8ec06a39bfb555a2bba4033846040516104469291906106bf565b60405180910390a1505050565b6000600180816001815401808255809150500390600052602060002090600302019050818160000181905550600160008084815260200190815260200160002060006101000a81548160ff0219169083151502179055507f4e7f1ce6361a60b37eb3e2455e45af0bc5611552abb9d35152d3822770d31d9d3383600180805490506104de919061079d565b6040516104ed93929190610688565b60405180910390a15050565b6000813590506105088161088f565b92915050565b60008135905061051d816108a6565b92915050565b60006020828403121561053557600080fd5b6000610543848285016104f9565b91505092915050565b60006020828403121561055e57600080fd5b600061056c8482850161050e565b91505092915050565b61057e816107d1565b82525050565b61058d816107e3565b82525050565b60006105a0601c8361078c565b91507f50726f766964656420696e646578206f7574206f6620626f756e6473000000006000830152602082019050919050565b60006105e060248361078c565b91507f53656e64657220616c726561647920766f74656420666f722074686973206d6f60008301527f76696521000000000000000000000000000000000000000000000000000000006020830152604082019050919050565b600061064660158361078c565b91507f4d6f76696520616c7265616479206578697374732100000000000000000000006000830152602082019050919050565b6106828161080d565b82525050565b600060608201905061069d6000830186610575565b6106aa6020830185610584565b6106b76040830184610679565b949350505050565b60006040820190506106d46000830185610575565b6106e16020830184610679565b9392505050565b60006040820190506106fd6000830185610584565b61070a6020830184610679565b9392505050565b6000602082019050818103600083015261072a81610593565b9050919050565b6000602082019050818103600083015261074a816105d3565b9050919050565b6000602082019050818103600083015261076a81610639565b9050919050565b60006020820190506107866000830184610679565b92915050565b600082825260208201905092915050565b60006107a88261080d565b91506107b38361080d565b9250828210156107c6576107c5610860565b5b828203905092915050565b60006107dc826107ed565b9050919050565b6000819050919050565b600073ffffffffffffffffffffffffffffffffffffffff82169050919050565b6000819050919050565b60006108228261080d565b91507fffffffffffffffffffffffffffffffffffffffffffffffffffffffffffffffff82141561085557610854610860565b5b600182019050919050565b7f4e487b7100000000000000000000000000000000000000000000000000000000600052601160045260246000fd5b610898816107e3565b81146108a357600080fd5b50565b6108af8161080d565b81146108ba57600080fd5b5056fea26469706673582212203211920e4ddea96df310a694b980d6b808545fc120f53fcb2a7afb19e0515f9364736f6c63430008000033",
  "immutableReferences": {},
  "source": "pragma solidity >=0.7.0 <0.9.0;\r\n\r\ncontract Rating {\r\n  \r\n  struct Movie {\r\n    bytes32 name;\r\n    uint256 votes;\r\n    mapping(address => bool) voted;\r\n  }\r\n  \r\n  mapping(bytes32 => bool) exists;\r\n  Movie[] public movies;\r\n\r\n  event AddMovie(address from, bytes32 movieName, uint256 index);\r\n\r\n  event AddVote(address from, uint256 index);\r\n\r\n  /**\r\n   * @dev Create a new contract instance with the provided names\r\n   * @param names list of movie names\r\n   */\r\n  constructor (bytes32[] memory names) {\r\n    for (uint256 n = 0; n < names.length; n++) {\r\n        initMovie(names[n]);\r\n    }\r\n  }\r\n\r\n  /**\r\n   * @dev Modifier that ensures a provided index is valid\r\n   * @param index index\r\n   */\r\n  modifier validIndex(uint256 index) {\r\n    require(index >= 0 && index < movies.length, \"Provided index out of bounds\");\r\n    _;\r\n  }\r\n\r\n  /**\r\n   * @dev Initializes a movie\r\n   * @param name the movie name\r\n   */\r\n  function initMovie(bytes32 name) private {\r\n    Movie storage movie = movies.push();\r\n    movie.name = name;\r\n    exists[name] = true;\r\n    \r\n    emit AddMovie(msg.sender, name, movies.length - 1);\r\n  }\r\n\r\n  /**\r\n   * @dev Returns the number of movies\r\n   */\r\n  function numMovies() public view returns (uint256) {\r\n    return movies.length;\r\n  }\r\n\r\n  /**\r\n   * @dev Returns the number of votes a movie has\r\n   * @param index index of the movie\r\n   */\r\n  function totalVotesFor(uint256 index) public view validIndex(index) returns (uint256) {\r\n      Movie storage movie = movies[index];\r\n      return movie.votes;\r\n  }\r\n\r\n  /**\r\n   * @dev Vote for a movie\r\n   * @param index index of the movie\r\n   */\r\n  function voteForMovie(uint256 index) public validIndex(index) {\r\n      Movie storage movie = movies[index];\r\n\r\n      require(!movie.voted[msg.sender], \"Sender already voted for this movie!\");\r\n      \r\n      movie.voted[msg.sender] = true;\r\n      movie.votes++;\r\n\r\n      emit AddVote(msg.sender, index);\r\n  }\r\n\r\n  /**\r\n   * @dev Adds a new movie\r\n   * @param movie the movie name\r\n   */\r\n  function addMovie(bytes32 movie) public {\r\n    require(!exists[movie], \"Movie already exists!\");\r\n    initMovie(movie);\r\n  }\r\n\r\n}",
  "sourcePath": "C:\\Users\\lefebvrem\\Desktop\\Folder\\School\\Summer 2022\\Blockchain\\Assignments\\4\\movieRatingApp\\rating\\contracts\\Rating.sol",
  "compiler": {
    "name": "solc",
    "version": "0.8.0+commit.c7dfd78e.Emscripten.clang"
  },
  "schemaVersion": "3.4.7",
  "updatedAt": "2022-07-12T03:13:55.699Z",
  "devdoc": {
    "kind": "dev",
    "methods": {
      "addMovie(bytes32)": {
        "details": "Adds a new movie",
        "params": {
          "movie": "the movie name"
        }
      },
      "constructor": {
        "details": "Create a new contract instance with the provided names",
        "params": {
          "names": "list of movie names"
        }
      },
      "numMovies()": {
        "details": "Returns the number of movies"
      },
      "totalVotesFor(uint256)": {
        "details": "Returns the number of votes a movie has",
        "params": {
          "index": "index of the movie"
        }
      },
      "voteForMovie(uint256)": {
        "details": "Vote for a movie",
        "params": {
          "index": "index of the movie"
        }
      }
    },
    "version": 1
  },
  "userdoc": {
    "kind": "user",
    "methods": {},
    "version": 1
  }
}